:1000000014C1000042C1000040C100003EC1000018
:100010003CC100003AC1000038C1000036C10000F8
:1000200034C1000032C1000030C100002EC1000008
:100030002CC100002AC1000028C1000026C1000018
:1000400024C1000022C1000020C100001EC1000028
:100050001CC100001AC1000018C100007EC50000CC
:1000600014C1000044C5000019C500000EC1000005
:100070000CC100000AC1000008C1000006C1000058
:1000800004C1000002C1000000C10000FEC0000069
:10009000FCC00000FAC00000F8C00000F6C000007C
:1000A000F4C00000F2C00000F0C00000EEC000008C
:1000B000ECC00000EAC00000E8C00000E6C000009C
:1000C000E4C00000E2C00000E0C00000DEC00000AC
:1000D000DCC00000DAC00000D8C00000D6C00000BC
:1000E000D4C00000D502D802C702CB02D1020F0350
:1000F000DC02E002E602EA02EE02F402F802FC028E
:100100000F03020306030A03000021002400270056
:100110002A002D0030003300010100000401070116
:100120000A0100002200250028002B002E003100CB
:10013000340002010000050108010B01000020004D
:100140002300260029002C002F00320000010000AF
:10015000030106010901050505050705080808084A
:10016000020202020A0A080804040404010101014F
:10017000010101010303030303030303040707074A
:100180000C0C0C0C0C0C0C0C0202020206060606EF
:10019000060606060B0B0B0B0B0B0B0B01021020BC
:1001A00020080810204010204080020102010804AD
:1001B0000201010204081020408080402010080441
:1001C000020180040201804020100804020108049A
:1001D00002010102040810204080010204081020DE
:1001E000408000000A0B02090C0D0E0807030401F1
:1001F00000000000000000000000000000000000FF
:1002000000000000000000000000000000001211CB
:1002100010000000000000000000000000000000CE
:100220000000000000000000F70511241FBECFEF02
:10023000D1E2DEBFCDBF00E00CBF12E0A0E0B2E033
:10024000E8EFF4E100E00BBF02C007900D92AC3A7A
:10025000B107D9F723E0ACEAB2E001C01D92A63A9B
:10026000B207E1F711E0C5E1D1E000E006C0219757
:100270000109802FFE010E946E0AC431D10780E07F
:100280000807A9F7F3D40C947A0ABACEE1ECF2E0AD
:10029000A089B18982E08C93A485B5851C92A6853E
:1002A000B7858FEC8C93108EA489B58986E08C93EA
:1002B000A289B3898C9180618C93A289B3898C9136
:1002C00088608C93A289B3898C9180688C93028812
:1002D000F389E02D80818F7D8083089580917B005C
:1002E000877F80937B0083E480937C0080917A00F9
:1002F000806480937A0080917A0086FDFCCF8091A3
:1003000078002091790090E0922B0895CF92DF92AF
:10031000EF92FF920F931F93CF93DF936C017A01BB
:100320008B01C0E0D0E0CE15DF0589F0D8016D91DA
:100330008D01D601ED91FC910190F081E02DC60177
:100340001995892B11F47E0102C02196ECCFC701CB
:10035000DF91CF911F910F91FF90EF90DF90CF90A1
:100360000895089580E090E00895FC01538D448D38
:10037000252F30E0842F90E0821B930B541710F050
:10038000CF96089501970895FC01918D828D98175D
:1003900061F0828DDF01A80FB11D5D968C91928D69
:1003A0009F5F9F73928F90E008958FEF9FEF089566
:1003B000FC01918D828D981731F0828DE80FF11D2F
:1003C000858D90E008958FEF9FEF0895FC01918D4A
:1003D000228D892F90E0805C9F4F821B91098F7343
:1003E0009927089581EC92E0F1DF21E0892B09F44F
:1003F00020E0822F0895FC01848DDF01A80FB11D3C
:10040000A35ABF4F2C91848D90E001968F7399274A
:10041000848FA689B7892C93A089B1898C91806437
:100420008C93938D848D981306C00288F389E02DF8
:1004300080818F7D80830895EF92FF920F931F93A9
:10044000CF93DF93EC0181E0888F9B8D8C8D981387
:1004500005C0E889F989808185FD23C0F62E0B8DC2
:1004600010E00F5F1F4F0F731127E02E8C8DE812E5
:100470000BC00FB607FCFACFE889F989808185FFA8
:10048000F5CFCE01B8DFF2CF8B8DFE01E80FF11D65
:10049000E35AFF4FF0820B8FEA89FB8980818062EB
:1004A00007C0EE89FF896083E889F98980818064CB
:1004B000808381E090E0DF91CF911F910F91FF90B9
:1004C000EF900895CF93DF93EC01888D8823C1F0DE
:1004D000EA89FB89808185FD05C0A889B9898C914D
:1004E00086FD0EC00FB607FCF5CF808185FFF2CFE9
:1004F000A889B9898C9185FFEDCFCE017CDFE8CF4B
:10050000DF91CF91089580E090E0892B19F06ADFA8
:10051000811125C080E090E0892B41F080E090E0DF
:10052000892B21F00E94000081111CC080E090E026
:10053000892B41F080E090E0892B21F00E9400009F
:10054000811113C080E090E0892BA1F080E090E061
:10055000892B81F00E94000081110AC008950E9439
:100560000000D8CF0E940000E1CF0E940000EACF37
:100570000C940000089590E0FC013197E231F10500
:1005800008F04DC08827EE58FF4F8F4FA7C78091C6
:1005900080008F7703C0809180008F7D80938000E2
:1005A000089580918000877FF9CF84B58F7702C04E
:1005B00084B58F7D84BD08958091B0008F7703C08E
:1005C0008091B0008F7D8093B0000895809190005D
:1005D0008F7707C0809190008F7D03C0809190003D
:1005E000877F8093900008958091A0008F7707C047
:1005F0008091A0008F7D03C08091A000877F8093B1
:10060000A0000895809120018F7707C0809120017C
:100610008F7D03C080912001877F80932001089502
:10062000CF93DF93282F30E0F901EE51FE4F8491F4
:10063000F901E456FE4FD491F901EA5AFE4FC491F4
:10064000CC2389F0811197DFEC2FF0E0EE0FFF1F34
:10065000E45CFE4FA591B491EC91ED2381E090E034
:1006600021F480E002C080E090E0DF91CF91089516
:100670001F93CF93DF93282F30E0F901EE51FE4F07
:100680008491F901E456FE4FD491F901EA5AFE4FE4
:10069000C491CC23C1F0162F81116DDFEC2FF0E057
:1006A000EE0FFF1FEE5DFE4FA591B4918FB7F8944A
:1006B000111105C09C91ED2FE095E92302C0EC914A
:1006C000ED2BEC938FBFDF91CF911F910895CF93C6
:1006D000DF9390E0FC01E456FE4F2491FC01EA5ABE
:1006E000FE4F8491882361F190E0880F991FFC01EF
:1006F000E85FFE4FC591D491FC01EE5DFE4FA591E0
:10070000B491611109C09FB7F89488812095822324
:100710008883EC912E230BC0623061F49FB7F8946C
:100720003881822F809583238883EC912E2B2C9304
:100730009FBF06C08FB7F894E8812E2B28838FBF08
:10074000DF91CF9108953FB7F8948091B1029091D5
:10075000B202A091B302B091B40226B5A89B05C025
:100760002F3F19F00196A11DB11D3FBFBA2FA92F30
:10077000982F8827820F911DA11DB11DBC01CD01AD
:1007800042E0660F771F881F991F4A95D1F7089599
:100790008F929F92AF92BF92CF92DF92EF92FF9291
:1007A0006B017C01D0DF4B015C01C114D104E10479
:1007B000F104E9F0C8DFDC01CB0188199909AA0925
:1007C000BB09883E9340A105B10578F321E0C21A28
:1007D000D108E108F10888EE880E83E0981EA11C7C
:1007E000B11CC114D104E104F10421F7DECFFF9064
:1007F000EF90DF90CF90BF90AF909F908F90089533
:100800002FB7F8946091AD027091AE028091AF0263
:100810009091B0022FBF0895CF93E091B702F0916D
:10082000B802EE0FFF1FEC5FFD4FC08161E08C2F1F
:100830001FDF64EF71E080E090E0AADF60E08C2FC2
:1008400017DF64EF71E080E090E0CF91A1CFCF930C
:10085000DF93C4E0D2E082E0C632D80729F0888175
:10086000229660E005DFF7CFDF91CF910895CF9317
:10087000DF931F921F92CDB7DEB730DD8B3C22E0B5
:1008800092073CF02BDD89839A83E1DF9A8189818D
:10089000F5CF803622E092071CF082E791E01CC081
:1008A000873E21E092071CF08CEB90E015C0883564
:1008B00021E092071CF08AE690E00EC0833E91058D
:1008C0001CF087E390E008C08B3591051CF08FE1A8
:1008D00090E002C08FE090E09093B6028093B50262
:1008E0000F900F90DF91CF910895CF93DF93C4E0E5
:1008F000D2E082E0C632D80729F08881229661E0F2
:10090000B7DEF7CFDF91CF910895880F991FFC01D3
:10091000EC5FFD4F61E08081ABCECF93DF9383E04E
:1009200090E0F3DF8DE090E0F0DFC5E0D0E0CE01B5
:10093000ECDF2196CC30D105D1F76EDF6DDF6CDFB7
:1009400068EE73E080E090E023DF83E090E0DDDF9D
:100950008DE090E0DADF64EF71E080E090E018DF96
:1009600060E089E185DE64EF71E080E090E010DF17
:1009700083E090E0CADF68EC70E080E090E008DFA0
:10098000C4E0D2E082E0C632D80751F088812296D6
:1009900060E06EDE64E670E080E090E0F9DEF2CFC9
:1009A000DF91CF910895A2D56115710579F0FB0112
:1009B00001900020E9F73197AF01461B570BDC018E
:1009C000ED91FC910280F381E02D199480E090E09C
:1009D00008954F925F926F927F92EF92FF920F93E2
:1009E0001F93CF93DF93CDB7DEB7A1970FB6F894DF
:1009F000DEBF0FBECDBF7C01FA01CB0119A22230B0
:100A000008F42AE08E010F5D1F4F422E512C612CFD
:100A1000712CBF01A301920104D5F901CA01015053
:100A200011096A3014F4605D01C0695CD8016C93EF
:100A3000232B242B252B69F7B801C701B5DFA1961D
:100A40000FB6F894DEBF0FBECDBFDF91CF911F91DF
:100A50000F91FF90EF907F906F905F904F9008956F
:100A60000F931F93CF93DF93EC019EDF8C0160E621
:100A700072E0CE0199DF800F911FDF91CF911F911E
:100A80000F91089566E372E081EC92E0E9DF61E0A6
:100A90008CE0EEDD61E08DE0EBDDE9CE1F920F92A0
:100AA0000FB60F9211240BB60F922F933F934F93D3
:100AB0005F936F937F938F939F93AF93BF93EF93C6
:100AC000FF9381EC92E097DCFF91EF91BF91AF91A2
:100AD0009F918F917F916F915F914F913F912F9156
:100AE0000F900BBE0F900FBE0F901F9018951F9286
:100AF0000F920FB60F9211240BB60F922F938F9374
:100B00009F93EF93FF93E091D102F091D202808105
:100B1000E091D702F091D80282FD12C090818091BD
:100B2000DA028F5F8F732091DB02821751F0E09120
:100B3000DA02F0E0EF53FD4F958F8093DA0201C0A7
:100B40008081FF91EF919F918F912F910F900BBE1C
:100B50000F900FBE0F901F9018951F920F920FB617
:100B60000F9211242F933F938F939F93AF93BF9333
:100B70008091AD029091AE02A091AF02B091B0020F
:100B80003091AC0223E0230F2D3720F40196A11DF4
:100B9000B11D05C026E8230F0296A11DB11D2093AB
:100BA000AC028093AD029093AE02A093AF02B093DB
:100BB000B0028091B1029091B202A091B302B091C3
:100BC000B4020196A11DB11D8093B1029093B202AF
:100BD000A093B302B093B402BF91AF919F918F9154
:100BE0003F912F910F900FBE0F901F901895E1EC41
:100BF000F2E01382128288EE93E0A0E0B0E08483FA
:100C00009583A683B78388E292E09183808385EC05
:100C100090E09587848784EC90E09787868780ECC6
:100C200090E0918B808B81EC90E0938B828B82ECB7
:100C300090E0958B848B86EC90E0978B868B118E61
:100C4000128E138E148EEEE5F3E016821782108654
:100C50001186128613861486158616861786108AC4
:100C6000118A128A138A148A158A0895789484B591
:100C7000826084BD84B5816084BD85B5826085BD98
:100C800085B5816085BD80916E00816080936E0026
:100C90001092810080918100826080938100809118
:100CA00081008160809381008091800081608093C9
:100CB00080008091B10084608093B1008091B00089
:100CC00081608093B0008091910082608093910058
:100CD000809191008160809391008091900081606B
:100CE000809390008091A10082608093A100809108
:100CF000A10081608093A1008091A0008160809319
:100D0000A0008091210182608093210180912101C6
:100D10008160809321018091200181608093200176
:100D200080917A00846080937A0080917A0082605A
:100D300080937A0080917A00816080937A0080911C
:100D40007A00806880937A001092C1001092A2030A
:100D50001092A3031092A4031092A50310926003B3
:100D600010926103109262031092630349DD6B01DC
:100D70007C014B015C0188EB880E8BE0981EA11C66
:100D8000B11C3EDD6C157D058E059F0528F086168D
:100D90009706A806B906A8F781EC92E09093A10304
:100DA0008093A00373DA2CDD60936003709361037A
:100DB000809362039093630361E572E08091A003E6
:100DC0009091A103F1DD1CDD6B017C014B015C0105
:100DD0009AE0890E911CA11CB11C12DD6C157D05D9
:100DE0008E059F0528F086169706A806B906A8F76F
:100DF00081E08093740361E086E169DC61E087E172
:100E000066DC61E088E163DC61E089E160DC61E08F
:100E10008AE15DDC61E08BE15ADC61E08CE157DC6A
:100E200061E08DE154DC61E08EE151DC61E08FE155
:100E30004EDC61E080E24BDC61E081E248DC61E0B5
:100E400082E245DC61E083E242DC61E084E23FDC97
:100E500061E085E23CDC61E08DE039DC60E087E068
:100E600036DC61E087E004DC11DA3FDD0BDEC3E055
:100E70004C2E512C612C712CC3DC672B682B692BF9
:100E800039F4BEDC623071058105910508F402C1B8
:100E9000B7DC6093BD027093BE028093BF02909353
:100EA000C0020091B9021091BA022091BB023091A8
:100EB000BC02601771078207930740F46093B90280
:100EC0007093BA028093BB029093BC020091B90266
:100ED0001091BA022091BB023091BC026B017C01DF
:100EE000C01AD10AE20AF30A970186010A3F1105E6
:100EF0002105310508F4CEC06093B9027093BA029F
:100F00008093BB029093BC0284EF91E0A0E0B0E03C
:100F100080936C0390936D03A0936E03B0936F0363
:100F20001092700310927103109272031092730367
:100F30008091640390916503A0916603B09167036B
:100F40008093680390936903A0936A03B0936B0343
:100F500057DC6093640370936503809366039093FA
:100F600067034EDC609360037093610380936203B8
:100F70009093630345DC6B017C0163E672E0809132
:100F8000A0039091A10310DD2AE041E050E060E071
:100F900070E08091A0039091A1031BDD6AE672E0EE
:100FA0008091A0039091A103FFDC2AE0B701A60184
:100FB0008091A0039091A1030CDD6CE672E080911A
:100FC000A0039091A103F0DC8091640390916503EC
:100FD000A0916603B0916703B701A601481B590BA6
:100FE0006A0B7B0B2AE08091A0039091A103F1DCB6
:100FF0006CE672E08091A0039091A103D5DC409152
:10100000640350916503609166037091670380915A
:10101000680390916903A0916A03B0916B03481B28
:10102000590B6A0B7B0B2AE08091A0039091A103DE
:10103000D0DC6EE672E08091A0039091A103B4DC55
:10104000DFDBAB01BC012AE08091A0039091A103FA
:10105000C0DC60E772E08091A0039091A10300DD05
:10106000CFDB6B017C014B015C0192E0890E911C8E
:10107000A11CB11CC5DB6C157D058E059F0508F014
:1010800074C1BEDB60936403709365038093660351
:101090009093670367E772E081EC92E0E1DC87E020
:1010A000BFDA019759F4B1D12DE030E040E050E0D3
:1010B000DAD17093B8026093B702F1CF61E08DE0AE
:1010C000D7DA68EE73E080E090E062DB87E0A8DAD0
:1010D000019731F5C091B702D091B802CE0115DC6D
:1010E0006091B5027091B602072E000C880B990B27
:1010F0004FDBFE01EE0FFF1FEC5FFD4F60E08081D4
:10110000B7DA2196C031D10529F0D093B802C09347
:10111000B70204C01092B8021092B702A8DBD6CF73
:1011200068E872E081EC92E09BDC68EC70E080E0C3
:1011300090E02EDB67E972E081EC92E091DCE091D7
:10114000B702F091B802EE0FFF1FEC5FFD4F8081F8
:101150009181469709F001C161E086E189DA64EF87
:1011600071E080E090E014DB50D1A30192017BD1CB
:101170006130710509F4F5C06230710509F495C05C
:10118000672B09F0EEC0B1DB64EF71E080E090E026
:10119000FFDA5DDB64EF71E080E090E0F9DAC4E053
:1011A000D2E08E01B2E004321B0761F0D8018C91CD
:1011B0000E5F1F4F61E05CDA62E370E080E090E078
:1011C000E7DAF0CF06E212E07801E2E0EE1AF10889
:1011D00060E0D7018C914CDA62E370E080E090E04F
:1011E000D7DAB4E0EB16B2E0FB0679F7025011094A
:1011F00061E0F80180813CDA62E370E080E090E039
:10120000C7DAF2E004301F0789F782E0C432D8075A
:1012100051F08881229660E02BDA62E370E080E092
:1012200090E0B6DAF2CFE2E0AE2EB12C49E0E42E47
:10123000F12C09E010E0C9E0D0E0FE01EE0FFF1F45
:10124000EC5FFD4FD08061E08D2D12DAF801EE0FDA
:10125000FF1FEC5FFD4FC08061E08C2D09DA6BE46D
:1012600070E080E090E094DA60E08D2D01DA60E0DB
:101270008C2DFED9C330D10511F0219702C0C1E0F9
:10128000D0E00031110519F00F5F1F4F02C000E0E0
:1012900010E091E0E91AF10881F6AA94AB2809F46C
:1012A0005CC0AA24A394B12CC1CF34E0C32ED12CAE
:1012B000C4EFD1E004E012E0780161E0F701808141
:1012C000D7D9F4E0EF0EF11C84E2E81682E0F806CC
:1012D000A1F74E010D2E000CAA08BB08C501B401F0
:1012E00057DA24E0E22E22E0F22E60E0D7018C9162
:1012F000BFD9B4E0EB0EF11CE4E2EE16E2E0FE062C
:10130000A1F794E0E92E92E0F92E61E0D701129660
:101310008C91AED9B4E0EB0EF11CE4E2EE16E2E003
:10132000FE0699F7C501B40133DA60E0D8011296E0
:101330008C919ED90C5F1F4FB2E004321B07A9F7B6
:10134000E1E0CE1AD10841F0CB3FD10514F4C8EE4C
:10135000D3E0D595C795AECF7ADA5EDA5DDA5CDA9E
:1013600001C0DBDA8FDBCFD887CD86169706A806BB
:10137000B90608F07FCE85CE8F929F92AF92BF9232
:10138000CF92DF92EF92FF92CF93DF93EC016881CF
:1013900079818A819B81611571058105910521F40F
:1013A00064E279ED8BE597E02DE133EF41E050E029
:1013B0005AD049015A019B01AC01A7EAB1E46FD0B0
:1013C0006B017C01ACEEB4EFA501940174D0DC019B
:1013D000CB018C0D9D1DAE1DBF1DB7FF03C0019736
:1013E000A109B04888839983AA83BB83BC01CD013E
:1013F0009F77DF91CF91FF90EF90DF90CF90BF90DC
:10140000AF909F908F900895B7CF80E092E0B4CFD7
:101410006093000270930102809302029093030292
:101420000895A1E21A2EAA1BBB1BFD010DC0AA1F25
:10143000BB1FEE1FFF1FA217B307E407F50720F03D
:10144000A21BB30BE40BF50B661F771F881F991FB8
:101450001A9469F760957095809590959B01AC0101
:10146000BD01CF010895052E97FB16F400940FD00F
:1014700057FD05D0D6DF07FC02D046F408C05095D2
:101480004095309521953F4F4F4F5F4F0895909570
:101490008095709561957F4F8F4F9F4F08950FD026
:1014A000A59F900DB49F900DA49F800D911D1124B8
:1014B0000895B7FFF4CFF3DF821B930B0895A29F2B
:1014C000B001B39FC001A39F700D811D1124911D18
:1014D000B29F700D811D1124911D0895EE0FFF1F05
:1014E000881F8BBF0790F691E02D199481E090E062
:0814F000F89400C0F894FFCF4E
:1014F8000100000016001700180019001A001B0050
:101508001C001D001E001F002000210022002300D7
:1015180024002500000000001C028601B5016202BB
:10152800E601C401D8014C61756E6368696E672075
:1015380067616D652073657474696E67732E2E2EEE
:1015480000564D4450565F317C315F564D445056DD
:101558000D0A00564D4450455F003A323A007C006F
:101568005F564D445045005374617274696E67202C
:1015780067616D652E2E2E00456E64696E67206763
:10158800616D652E2E2E004C6F61642067616D655C
:0C15980020726573756C74732E2E2E008B
:00000001FF
